:020000040000fa
:080000000002040000000000f2
:020000040000fa
:040008002e030000c3
:020000040000fa
:04000c002e030000bf
:020000040000fa
:040010002e030000bb
:020000040000fa
:040014002e030000b7
:020000040000fa
:040018002e030000b3
:020000040000fa
:04001c002e030000af
:020000040000fa
:040020002e030000ab
:020000040000fa
:040024002e030000a7
:020000040000fa
:040028002e030000a3
:020000040000fa
:04002c002e0300009f
:020000040000fa
:040030002e0300009b
:020000040000fa
:0400340012030000b3
:020000040000fa
:040038002e03000093
:020000040000fa
:04003c002e0300008f
:020000040000fa
:040040002e0300008b
:020000040000fa
:040044000a030000ab
:020000040000fa
:040048001a03000097
:020000040000fa
:04004c002e0300007f
:020000040000fa
:040050002e0300007b
:020000040000fa
:040054002e03000077
:020000040000fa
:040058002e03000073
:020000040000fa
:04005c00220300007b
:020000040000fa
:040060002e0300006b
:020000040000fa
:040064002e03000067
:020000040000fa
:040068002e03000063
:020000040000fa
:04006c002e0300005f
:020000040000fa
:040070002e0300005b
:020000040000fa
:04007400d0020000b6
:020000040000fa
:040078002e03000053
:020000040000fa
:04007c002e0300004f
:020000040000fa
:040080002e0300004b
:020000040000fa
:040084002e03000047
:020000040000fa
:040088002e03000043
:020000040000fa
:04008c002e0300003f
:020000040000fa
:040090002e0300003b
:020000040000fa
:040094002e03000037
:020000040000fa
:040098002e03000033
:020000040000fa
:04009c002e0300002f
:020000040000fa
:0400a000ec0200006e
:020000040000fa
:0400a4000203000053
:020000040000fa
:0400a8002e03000023
:020000040000fa
:0400ac002e0300001f
:020000040000fa
:0400b0002e0300001b
:020000040000fa
:0400b4002e03000017
:020000040000fa
:0400b8002e03000013
:020000040000fa
:0400bc002e0300000f
:020000040000fa
:0400c0002e0300000b
:020000040000fa
:0400c4002e03000007
:020000040000fa
:0400c8002e03000003
:020000040000fa
:0400cc002e030000ff
:020000040000fa
:0400d0002e030000fb
:020000040000fa
:0400d4002e030000f7
:020000040000fa
:0400d8002e030000f3
:020000040000fa
:0400dc002e030000ef
:020000040000fa
:0400e0002e030000eb
:020000040000fa
:0400e4002e030000e7
:020000040000fa
:0400e8002e030000e3
:020000040000fa
:0400ec002e030000df
:020000040000fa
:0400f0002e030000db
:020000040000fa
:0400f4002e030000d7
:020000040000fa
:0400f8002e030000d3
:020000040000fa
:0400fc002e030000cf
:020000040000fa
:040100002e030000ca
:020000040000fa
:040104002e030000c6
:020000040000fa
:040108002e030000c2
:020000040000fa
:04010c002e030000be
:020000040000fa
:040110002e030000ba
:020000040000fa
:040114002e030000b6
:020000040000fa
:040118002e030000b2
:020000040000fa
:04011c002e030000ae
:020000040000fa
:040120002e030000aa
:020000040000fa
:040124002e030000a6
:020000040000fa
:040128002e030000a2
:020000040000fa
:04012c002e0300009e
:020000040000fa
:040130002e0300009a
:020000040000fa
:040134002e03000096
:020000040000fa
:040138002e03000092
:020000040000fa
:04013c002e0300008e
:020000040000fa
:040140002e0300008a
:020000040000fa
:040144002e03000086
:020000040000fa
:040148002e03000082
:020000040000fa
:04014c002e0300007e
:020000040000fa
:040150002e0300007a
:020000040000fa
:040154002e03000076
:020000040000fa
:040158002e03000072
:020000040000fa
:04015c002e0300006e
:020000040000fa
:040208002e030000c1
:020000040000fa
:04020c002e030000bd
:020000040000fa
:040210002e030000b9
:020000040000fa
:040214002e030000b5
:020000040000fa
:040218002e030000b1
:020000040000fa
:04021c002e030000ad
:020000040000fa
:040220002e030000a9
:020000040000fa
:040224002e030000a5
:020000040000fa
:040228002e030000a1
:020000040000fa
:04022c002e0300009d
:020000040000fa
:040230002e03000099
:020000040000fa
:0402340012030000b1
:020000040000fa
:040238002e03000091
:020000040000fa
:04023c002e0300008d
:020000040000fa
:040240002e03000089
:020000040000fa
:040244000a030000a9
:020000040000fa
:040248001a03000095
:020000040000fa
:04024c002e0300007d
:020000040000fa
:040250002e03000079
:020000040000fa
:040254002e03000075
:020000040000fa
:040258002e03000071
:020000040000fa
:04025c002203000079
:020000040000fa
:040260002e03000069
:020000040000fa
:040264002e03000065
:020000040000fa
:040268002e03000061
:020000040000fa
:04026c002e0300005d
:020000040000fa
:040270002e03000059
:020000040000fa
:04027400d0020000b4
:020000040000fa
:040278002e03000051
:020000040000fa
:04027c002e0300004d
:020000040000fa
:040280002e03000049
:020000040000fa
:040284002e03000045
:020000040000fa
:040288002e03000041
:020000040000fa
:04028c002e0300003d
:020000040000fa
:040290002e03000039
:020000040000fa
:040294002e03000035
:020000040000fa
:040298002e03000031
:020000040000fa
:04029c002e0300002d
:020000040000fa
:0402a000ec0200006c
:020000040000fa
:0402a4000203000051
:020000040000fa
:0402a8002e03000021
:020000040000fa
:0402ac002e0300001d
:020000040000fa
:0402b0002e03000019
:020000040000fa
:0402b4002e03000015
:020000040000fa
:0402b8002e03000011
:020000040000fa
:0402bc002e0300000d
:020000040000fa
:0402c0002e03000009
:020000040000fa
:0402c4002e03000005
:020000040000fa
:0402c8002e03000001
:020000040000fa
:0402cc002e030000fd
:020000040000fa
:0402d0002e030000f9
:020000040000fa
:0402d4002e030000f5
:020000040000fa
:0402d8002e030000f1
:020000040000fa
:0402dc002e030000ed
:020000040000fa
:0402e0002e030000e9
:020000040000fa
:0402e4002e030000e5
:020000040000fa
:0402e8002e030000e1
:020000040000fa
:0402ec002e030000dd
:020000040000fa
:0402f0002e030000d9
:020000040000fa
:0402f4002e030000d5
:020000040000fa
:0402f8002e030000d1
:020000040000fa
:0402fc002e030000cd
:020000040000fa
:040300002e030000c8
:020000040000fa
:040304002e030000c4
:020000040000fa
:040308002e030000c0
:020000040000fa
:04030c002e030000bc
:020000040000fa
:040310002e030000b8
:020000040000fa
:040314002e030000b4
:020000040000fa
:040318002e030000b0
:020000040000fa
:04031c002e030000ac
:020000040000fa
:040320002e030000a8
:020000040000fa
:040324002e030000a4
:020000040000fa
:040328002e030000a0
:020000040000fa
:04032c002e0300009c
:020000040000fa
:040330002e03000098
:020000040000fa
:040334002e03000094
:020000040000fa
:040338002e03000090
:020000040000fa
:04033c002e0300008c
:020000040000fa
:040340002e03000088
:020000040000fa
:040344002e03000084
:020000040000fa
:040348002e03000080
:020000040000fa
:04034c002e0300007c
:020000040000fa
:040350002e03000078
:020000040000fa
:040354002e03000074
:020000040000fa
:040358002e03000070
:020000040000fa
:04035c002e0300006c
:020000040000fa
:100400002f8220000edf20000e0188000000000077
:10041000000020000000e000020032000001200087
:1004200020028800140007008e0007000000e00092
:1004300003003a00c08220000100200002003700c3
:100440000000200001002000810f70000100320038
:1004500014000700000020000000e000020032004d
:100460000000020000000000be05020000000000c5
:100470000040da000000fe004440a900000d20000a
:100480000000e0000300320000002000a00188000e
:100490004440a800000006008a1f78008b1f7800e7
:1004a0000000060091018800800478000000eb0045
:1004b0001a003700e284440032a0b4009905ba0063
:1004c000e284440032a0b4009906ba00e2844400f9
:1004d00032a0b4000006eb00476fde00fd07b2005b
:1004e000636ce10003003a00ebff07000000eb0043
:1004f0000a003700606ce10004003a00005deb0088
:100500008b05e900fdff3e00040037006168e10053
:10051000010032000086eb000b00070019c7ba008b
:100520001905ba000e04e00003003a000a00e000da
:10053000e0ff3a0000000600fe07b2009e018800be
:100540008a047800f5ff3700395dba008b05e900b1
:100550000c003200295dba008b05e900080032006a
:100560000c00e00003003a00e284440032a0b40032
:10057000f5ff370019ddba008b05e900faff3a00f4
:100580008904e800e184440032a0b40000000600c1
:10059000000000000000000000000000000000005b
:1005a000801f78000000fa00501680007000600084
:1005b0000000e00003003a001000200030408800f6
:1005c000010037000628ef008660a9000080fa00cd
:1005d0004f00780000400600801f78000000fa00fd
:1005e00087c0a900b0118000004078001ee8b70065
:1005f00010c0b3001fe8b7000080fa004f00780079
:10060000004006000000fa0087e0a9000080fa0020
:10061000004006000000fa0084e0a9000080fa0013
:10062000004006000000fa008460a9000080fa0083
:10063000004006000000fa008500a9000080fa00d2
:10064000004006000000fa0085a0a9002023a900b0
:1006500021e3a9000080fa00004006000040da0013
:100660000000fe0000000500800078000400370054
:100670003104e00002003a000000510000000600d2
:10068000010178000108a300f9ff3a008101780018
:1006900031017800f4ef2f00020242000281ea00eb
:1006a000020162000408280004016100f7ff320023
:1006b00083007800010178003104e000fdff3a007a
:0806c0000000510000000600db
:020000040000fa
:1006c8005379000073740000656d0000207200000b
:1006d80065730000657400002e200000506c000057
:1006e80065610000736500002073000074610000fc
:1006f800727400002061000067610000696e0000ec
:100708002e000000576500006c6300006f6d00004c
:1007180065210000204500006e740000657200002d
:10072800203100007374000020630000686100003d
:100738007261000063740000657200003a000000f6
:1007480045720000726f0000722100002050000006
:100758006c65000061730000652000006869000096
:10076800742000005042000032200000746f000026
:10077800207200006573000074610000727400004c
:10078800004300006f72000072650000637400008f
:1007980020310000737400002063000068610000cd
:1007a8007261000063740000657200002e20000072
:1007b800456e00007465000072200000326e000073
:1007c800642000006368000061720000616300003b
:1007d80074650000723a0000004500007272000063
:1007e8006f7200003a200000546900006d65000037
:1007f8006f750000742e0000205000007265000024
:100808007373000020500000423200002074000082
:100818006f200000726500007374000061720000b0
:10082800742e000000000000566f00006c74000079
:1008380061670000652000006d65000074650000b8
:10084800723a0000200000000a7400006f6f000078
:10085800206c00006f6e0000670a00000d000000a9
:020000040000fa
:100868000000fa0031a2a9003182a9003162a90072
:1008780081118000f0cf2f00008060008011880077
:1008880030e2a90030c2a90030a2a9003082a90034
:100898003062a8008111800090ff2f000080600066
:1008a800801188003002a900113a8000000027005a
:1008b8008080600000002600808f500003003a000e
:1008c800c0002000c011880010003700113a8000d5
:1008d800000027008080600000002500808f500005
:1008e80003003a00c0002000c0118800070037004c
:1008f800113a800000002700008060000000e0003e
:1009080002003a0070062000c011880033e2a900f6
:1009180033a2a80033c2a9003362a9003342a90058
:1009280091118000f0f32f00008060009011880082
:1009380032a2a90087e0a90091058000f0ff2800f5
:10094800808060000000230001007000900588008e
:1009580097e0a80087c0a90091058000f08f2f00bc
:100968000080600000a0a0009005880097c0a80043
:1009780031e2a8000080fa00000006000400fa0036
:10098800100798000000eb00000f78000600370001
:100998001e0090001e00400010407800110020004a
:1009a800070007001e0fe8001e0090002cff07003c
:1009b8009e0f5000f6ff31000080fa00000006008c
:1009c8000400fa00004f7800110798003342a8008d
:1009d8000b0037000000000091118000002020006b
:1009e800008060000000e000fbff3a001e00fb00f2
:1009f800a01188001e0090000000e9001007980070
:100a08001e0090000000e000f2ff3a000000000025
:100a18009111800000102000008060000000e000bc
:100a2800fbff32003342a9000080fa0000000600f4
:100a38000800fa0020079800614798000000eb00c2
:100a4800000f7800210037001fc8bf00e14f500099
:100a58001e003a001ec8bf00ff4f500018003600a5
:100a6800e181200091407800e0c7b30080cf5000ba
:100a780013003e006e4090000080fb000080e900fb
:100a88009e0f50000400310080422800bbff070081
:100a98001f68ef00100037002e0090001e00400075
:100aa800e181200091407800014878001e0fe8009d
:100ab8001ec8bf0011002000c1ff07003222a90094
:100ac8001ec8bf00204798001f68ef002e40900006
:100ad800ed4f5000dcff3a000080fa0000000600ed
:100ae8000200fa001100200000c2b300b4ff0700a2
:100af8001b0037001fc8bf00e14f500018003a0024
:100b08001ec8bf00ed4f500003003a001f68ef00f9
:100b18001e407800150037001ec8bf00ff4f500068
:100b28000d003600e181200091407800e0c7b30055
:100b380080cf500008003e001100200080c0b300a4
:100b48009fff07001ec8bf00004f78001ec8bf00e7
:100b5800110020009aff07003222a9001f68ef0049
:100b68001e407800ed4f5000e2ff3a000080fa0086
:100b7800000006000000fa00805d2000000001006f
:100b8800d100070000022000fa00070034ff070028
:100b980020032000bb0007006e0007002061200032
:100ba80000000100fdff37000000fa00c042a80065
:100bb800c082a800c882a8000080eb0060198800e5
:100bc800c902a9006bc0a8006820a8006800a80096
:100bd8006000a8006020a80063c0a8008660a90083
:100be8006105800000002700010070006005880092
:100bf8009660a8008660a9000080fa000000060040
:100c08000000fa001028ef001628ef0040362800f0
:100c18005aff07000080fa00000006000000fa00f2
:100c2800b0408000e10f500003003200e70f500091
:100c38001400320019003700603828004fff070001
:100c4800cd02a800a6ff07001ee8b7001ec8bf0017
:100c58008080fb0018c8bf000000fb00808f500098
:100c680003003a0020002000b04088000b00370045
:100c780070002000b0408800403a28003fff07007d
:100c88000600370030408000e10f500002003a00b3
:100c9800dbff07000100370000000000b0408000c3
:100ca800e20f500029003a00503c280033ff0700ab
:100cb8008bff07001ee8b70019003700cd02a80017
:100cc800a00f20006f000700cd02a900a00f200090
:100cd8006c000700004080000000e8000040880029
:100ce8001fc8bf000004e0000d0032001ec8bf008e
:100cf8008080fb0019c8bf000000fb00808f5000f7
:100d080003003a0030002000b04088000800370097
:100d1800103f280019ff0700b9ff0700040037003b
:100d28000140800010032000808f5000e3ff340052
:100d38000140800010032000808f50000300340021
:100d4800103f28000dff0700adff07000080fa00e4
:100d5800000006000200fa000000eb00000f780017
:100d680021e3a80001198000f0cf2f000080600067
:100d78000019880001198000000e20000100700091
:100d8800001988002043a9002003a9001119800038
:100d9800f0ff210000806000101988001119800000
:100da800f0ff210000806000101988002343a9008b
:100db8001119800030fc2f00008060001019880095
:100dc8002223a9002203a90025e3a90021198000f4
:100dd80000f021000100700020198800211980000e
:100de80000fc2f0000806000f001b300201988008b
:100df80028e3a9004119800000ff2f00008060004f
:100e08005000b300401988002c23ef003023ef0076
:100e1800510580000007200001007000500588007f
:100e280095a0a80085a0a9000080fa00000006008f
:100e38000000fa0021e3a8002023a8000018800081
:100e480000418800004180000080fa000000060090
:100e58000200fa00000f780080412800c7fe070052
:100e68009e007800f0382e000008b8004508de0023
:100e78008000780030c2b300d1fe07000080fa007d
:100e8800000006000200fa00000f78001e0078003b
:100e980000004000600888000621ef0011e1a8006a
:100ea8000080fa00000006000200fa00000f780037
:100eb8000080fa00000006000200fa00000f780027
:100ec8000080fa00000006000000fa0021088000f7
:100ed8000003200001007000200888000421a900f8
:100ee80005a1a90021058000f0ff2800008060000e
:100ef80000e0a000200588008460a9009460a80094
:100f08001061a90081088000000320000100700022
:100f1800800888001021a90011a1a90031058000ce
:100f2800f0ff28000080600000d0a0003005880095
:100f380084e0a90094e0a800910880000003200044
:100f480001007000900888001221a90013a1a900cf
:100f58004105800080ff2f00008060000020a00075
:100f6800400588008500a9009500a8000080fa00c7
:100f7800000006000400fa00100798001e00900008
:100f880001022000810f50000b003200411f200099
:100f9800810f500005003200e80f500009003a00a8
:100fa8000040eb00004f78000800370060c6b3002f
:100fb800004f78000500370050c5b300004f780097
:100fc8000200370050c5b300004f780011028000be
:100fd800000e20000100700010028800213a8000f5
:100fe800f08f2f0000806000203a88001e01fb006f
:100ff80080072000a1092000337420008049780070
:10100800814978008249780012002000600420009d
:1010180071052000237420008049780081497800f8
:101028008249780000000000103a800061006000ea
:101038000000e000fcff3a0011028000f0f12f00f0
:1010480000806000100288000080fa00000006009e
:020000040000fa
:101058000008000018000000000000001808000048
:101068000600000002000000616263000005000045
:101078001e08000002000000000000002008000018
:0c1088000200000000000000000000005a
:020000040000fa
:0c1094000000fa000080fa0000000600d6
:020000040000fa
:0200000401f009
:04000c008700000069
:020000040000fa
:0200000401f009
:040010007b00000071
:020000040000fa
:0200000401f009
:040014005f00000089
:020000040000fa
:0200000401f009
:04001c00c20000001e
:00000001FF
